{
    "contractName": "SimpleStorage",
    "abi": [
        {
            "inputs": [
                {
                    "internalType": "string",
                    "name": "_name",
                    "type": "string"
                },
                {
                    "internalType": "uint256",
                    "name": "_favoriteNumber",
                    "type": "uint256"
                }
            ],
            "name": "addPerson",
            "outputs": [],
            "stateMutability": "nonpayable",
            "type": "function"
        },
        {
            "inputs": [
                {
                    "internalType": "uint256",
                    "name": "",
                    "type": "uint256"
                }
            ],
            "name": "listOfPeople",
            "outputs": [
                {
                    "internalType": "uint256",
                    "name": "favoriteNumber",
                    "type": "uint256"
                },
                {
                    "internalType": "string",
                    "name": "name",
                    "type": "string"
                }
            ],
            "stateMutability": "view",
            "type": "function"
        },
        {
            "inputs": [
                {
                    "internalType": "string",
                    "name": "",
                    "type": "string"
                }
            ],
            "name": "nameToFavoriteNumber",
            "outputs": [
                {
                    "internalType": "uint256",
                    "name": "",
                    "type": "uint256"
                }
            ],
            "stateMutability": "view",
            "type": "function"
        },
        {
            "inputs": [],
            "name": "retrieve",
            "outputs": [
                {
                    "internalType": "uint256",
                    "name": "",
                    "type": "uint256"
                }
            ],
            "stateMutability": "view",
            "type": "function"
        },
        {
            "inputs": [
                {
                    "internalType": "uint256",
                    "name": "_favoriteNumber",
                    "type": "uint256"
                }
            ],
            "name": "store",
            "outputs": [],
            "stateMutability": "nonpayable",
            "type": "function"
        }
    ],
    "bytecode": "608080604052346015576104d0908161001a8239f35b5f80fdfe6080806040526004361015610012575f80fd5b5f3560e01c9081632e64cec1146103a1575080632ebce631146102a95780636057361d146102915780636f760f41146100ad57638bab8dd514610053575f80fd5b346100a95760203660031901126100a95760043567ffffffffffffffff81116100a95760208061008881933690600401610444565b604051928184925191829101835e8101600181520301902054604051908152f35b5f80fd5b346100a95760403660031901126100a95760043567ffffffffffffffff81116100a9576100de903690600401610444565b602435604051916040830183811067ffffffffffffffff82111761026a5760405281835260208301928184526002546801000000000000000081101561026a5780600161012e92016002556103ba565b61027e5760019151815501925192835167ffffffffffffffff811161026a5761015782546103ea565b601f8111610225575b50602094601f82116001146101bc57908060209596869594935f926101b1575b50508160011b915f199060031b1c19161790555b604051928184925191829101835e81016001815203019020555f80f35b015190508780610180565b94601f19821690835f52805f20915f5b81811061020d57509183916020979888979695600195106101f5575b505050811b019055610194565b01515f1960f88460031b161c191690558780806101e8565b9192602060018192868c0151815501940192016101cc565b825f5260205f20601f830160051c81019160208410610260575b601f0160051c01905b8181106102555750610160565b5f8155600101610248565b909150819061023f565b634e487b7160e01b5f52604160045260245ffd5b634e487b7160e01b5f525f60045260245ffd5b346100a95760203660031901126100a9576004355f55005b346100a95760203660031901126100a9576004356002548110156100a9576102d0906103ba565b5060018154910190604051905f928054906102ea826103ea565b9081855260208501926001811690815f14610384575060011461034a575b505061031983606094950385610422565b6040519384928352604060208401525180918160408501528484015e5f828201840152601f01601f19168101030190f35b9094505f5260205f205f905b85821061036e57508301602001935061031983610308565b6001816020925483858901015201910190610356565b60ff191684525050151560051b8301602001935061031983610308565b346100a9575f3660031901126100a9576020905f548152f35b6002548110156103d65760025f5260205f209060011b01905f90565b634e487b7160e01b5f52603260045260245ffd5b90600182811c92168015610418575b602083101461040457565b634e487b7160e01b5f52602260045260245ffd5b91607f16916103f9565b90601f8019910116810190811067ffffffffffffffff82111761026a57604052565b81601f820112156100a95780359067ffffffffffffffff821161026a5760405192610479601f8401601f191660200185610422565b828452602083830101116100a957815f92602080930183860137830101529056fea2646970667358221220dff5f9da569d30d34bc473c0f06a1e53aa733fb5744d1b88a3fb01671fa1c30b64736f6c634300081e0033",
    "sourcePath": "/home/salem/PlayGround/Blockchain/Foundry/foundry-simple-storage/src/SimpleStorage.sol",
    "compiler": {
        "name": "solc",
        "version": "0.8.30+commit.73712a01"
    },
    "functionHashes": {
        "addPerson(string,uint256)": "6f760f41",
        "listOfPeople(uint256)": "2ebce631",
        "nameToFavoriteNumber(string)": "8bab8dd5",
        "retrieve()": "2e64cec1",
        "store(uint256)": "6057361d"
    },
    "gasEstimates": {
        "creation": {
            "codeDepositCost": "246400",
            "executionCost": "294",
            "totalCost": "246694"
        },
        "external": {
            "addPerson(string,uint256)": "infinite",
            "listOfPeople(uint256)": "infinite",
            "nameToFavoriteNumber(string)": "infinite",
            "retrieve()": "2247",
            "store(uint256)": "22282"
        }
    }
}